{
  "contractName": "Marketplace",
  "abi": [
    {
      "inputs": [],
      "payable": false,
      "stateMutability": "nonpayable",
      "type": "constructor"
    },
    {
      "anonymous": false,
      "inputs": [
        {
          "indexed": false,
          "internalType": "uint256",
          "name": "id",
          "type": "uint256"
        },
        {
          "indexed": false,
          "internalType": "string",
          "name": "name",
          "type": "string"
        },
        {
          "indexed": false,
          "internalType": "uint256",
          "name": "price",
          "type": "uint256"
        },
        {
          "indexed": false,
          "internalType": "uint256",
          "name": "realEstateType",
          "type": "uint256"
        },
        {
          "indexed": false,
          "internalType": "string",
          "name": "realEstateAddress",
          "type": "string"
        },
        {
          "indexed": false,
          "internalType": "uint256",
          "name": "area",
          "type": "uint256"
        },
        {
          "indexed": false,
          "internalType": "string",
          "name": "description",
          "type": "string"
        },
        {
          "indexed": false,
          "internalType": "uint256",
          "name": "nbroom",
          "type": "uint256"
        },
        {
          "indexed": false,
          "internalType": "string",
          "name": "sellingDate",
          "type": "string"
        },
        {
          "indexed": false,
          "internalType": "address payable",
          "name": "owner",
          "type": "address"
        },
        {
          "indexed": false,
          "internalType": "bool",
          "name": "purchased",
          "type": "bool"
        }
      ],
      "name": "RealEstateCreated",
      "type": "event"
    },
    {
      "anonymous": false,
      "inputs": [
        {
          "indexed": false,
          "internalType": "uint256",
          "name": "id",
          "type": "uint256"
        },
        {
          "indexed": false,
          "internalType": "string",
          "name": "name",
          "type": "string"
        },
        {
          "indexed": false,
          "internalType": "uint256",
          "name": "price",
          "type": "uint256"
        },
        {
          "indexed": false,
          "internalType": "uint256",
          "name": "realEstateType",
          "type": "uint256"
        },
        {
          "indexed": false,
          "internalType": "string",
          "name": "realEstateAddress",
          "type": "string"
        },
        {
          "indexed": false,
          "internalType": "uint256",
          "name": "area",
          "type": "uint256"
        },
        {
          "indexed": false,
          "internalType": "string",
          "name": "description",
          "type": "string"
        },
        {
          "indexed": false,
          "internalType": "uint256",
          "name": "nbroom",
          "type": "uint256"
        },
        {
          "indexed": false,
          "internalType": "string",
          "name": "sellingDate",
          "type": "string"
        },
        {
          "indexed": false,
          "internalType": "address payable",
          "name": "owner",
          "type": "address"
        },
        {
          "indexed": false,
          "internalType": "bool",
          "name": "purchased",
          "type": "bool"
        }
      ],
      "name": "RealEstatePurchased",
      "type": "event"
    },
    {
      "constant": true,
      "inputs": [],
      "name": "name",
      "outputs": [
        {
          "internalType": "string",
          "name": "",
          "type": "string"
        }
      ],
      "payable": false,
      "stateMutability": "view",
      "type": "function"
    },
    {
      "constant": true,
      "inputs": [],
      "name": "productCount",
      "outputs": [
        {
          "internalType": "uint256",
          "name": "",
          "type": "uint256"
        }
      ],
      "payable": false,
      "stateMutability": "view",
      "type": "function"
    },
    {
      "constant": true,
      "inputs": [
        {
          "internalType": "uint256",
          "name": "",
          "type": "uint256"
        }
      ],
      "name": "products",
      "outputs": [
        {
          "internalType": "uint256",
          "name": "id",
          "type": "uint256"
        },
        {
          "internalType": "string",
          "name": "name",
          "type": "string"
        },
        {
          "internalType": "uint256",
          "name": "price",
          "type": "uint256"
        },
        {
          "internalType": "uint256",
          "name": "realEstateType",
          "type": "uint256"
        },
        {
          "internalType": "string",
          "name": "realEstateAddress",
          "type": "string"
        },
        {
          "internalType": "uint256",
          "name": "area",
          "type": "uint256"
        },
        {
          "internalType": "string",
          "name": "description",
          "type": "string"
        },
        {
          "internalType": "uint256",
          "name": "nbroom",
          "type": "uint256"
        },
        {
          "internalType": "string",
          "name": "sellingDate",
          "type": "string"
        },
        {
          "internalType": "address payable",
          "name": "owner",
          "type": "address"
        },
        {
          "internalType": "bool",
          "name": "purchased",
          "type": "bool"
        }
      ],
      "payable": false,
      "stateMutability": "view",
      "type": "function"
    },
    {
      "constant": false,
      "inputs": [
        {
          "internalType": "string",
          "name": "_name",
          "type": "string"
        },
        {
          "internalType": "uint256",
          "name": "_price",
          "type": "uint256"
        },
        {
          "internalType": "uint256",
          "name": "_realEstateType",
          "type": "uint256"
        },
        {
          "internalType": "string",
          "name": "_realEstateAddress",
          "type": "string"
        },
        {
          "internalType": "uint256",
          "name": "_area",
          "type": "uint256"
        },
        {
          "internalType": "string",
          "name": "_description",
          "type": "string"
        },
        {
          "internalType": "uint256",
          "name": "_nbroom",
          "type": "uint256"
        },
        {
          "internalType": "string",
          "name": "_sellingDate",
          "type": "string"
        }
      ],
      "name": "createRealEstate",
      "outputs": [],
      "payable": false,
      "stateMutability": "nonpayable",
      "type": "function"
    },
    {
      "constant": false,
      "inputs": [
        {
          "internalType": "uint256",
          "name": "_id",
          "type": "uint256"
        }
      ],
      "name": "purchaseRealEstate",
      "outputs": [],
      "payable": true,
      "stateMutability": "payable",
      "type": "function"
    }
  ],
  "bytecode": "0x608060405260006001553480156200001657600080fd5b506040518060400160405280600b81526020017f4d61726b6574706c61636500000000000000000000000000000000000000000081525060009080519060200190620000649291906200006b565b506200011a565b828054600181600116156101000203166002900490600052602060002090601f016020900481019282601f10620000ae57805160ff1916838001178555620000df565b82800160010185558215620000df579182015b82811115620000de578251825591602001919060010190620000c1565b5b509050620000ee9190620000f2565b5090565b6200011791905b8082111562000113576000816000905550600101620000f9565b5090565b90565b611789806200012a6000396000f3fe60806040526004361061004a5760003560e01c806306fdde031461004f578063656eb030146100df5780637acc0b2014610395578063c0625237146105ee578063e0f6ef871461061c575b600080fd5b34801561005b57600080fd5b50610064610647565b6040518080602001828103825283818151815260200191508051906020019080838360005b838110156100a4578082015181840152602081019050610089565b50505050905090810190601f1680156100d15780820380516001836020036101000a031916815260200191505b509250505060405180910390f35b3480156100eb57600080fd5b50610393600480360361010081101561010357600080fd5b810190808035906020019064010000000081111561012057600080fd5b82018360208201111561013257600080fd5b8035906020019184600183028401116401000000008311171561015457600080fd5b91908080601f016020809104026020016040519081016040528093929190818152602001838380828437600081840152601f19601f8201169050808301925050505050505091929192908035906020019092919080359060200190929190803590602001906401000000008111156101cb57600080fd5b8201836020820111156101dd57600080fd5b803590602001918460018302840111640100000000831117156101ff57600080fd5b91908080601f016020809104026020016040519081016040528093929190818152602001838380828437600081840152601f19601f820116905080830192505050505050509192919290803590602001909291908035906020019064010000000081111561026c57600080fd5b82018360208201111561027e57600080fd5b803590602001918460018302840111640100000000831117156102a057600080fd5b91908080601f016020809104026020016040519081016040528093929190818152602001838380828437600081840152601f19601f820116905080830192505050505050509192919290803590602001909291908035906020019064010000000081111561030d57600080fd5b82018360208201111561031f57600080fd5b8035906020019184600183028401116401000000008311171561034157600080fd5b91908080601f016020809104026020016040519081016040528093929190818152602001838380828437600081840152601f19601f8201169050808301925050505050505091929192905050506106e5565b005b3480156103a157600080fd5b506103ce600480360360208110156103b857600080fd5b8101908080359060200190929190505050610b48565b604051808c8152602001806020018b81526020018a81526020018060200189815260200180602001888152602001806020018773ffffffffffffffffffffffffffffffffffffffff1673ffffffffffffffffffffffffffffffffffffffff1681526020018615151515815260200185810385528f818151815260200191508051906020019080838360005b83811015610474578082015181840152602081019050610459565b50505050905090810190601f1680156104a15780820380516001836020036101000a031916815260200191505b5085810384528c818151815260200191508051906020019080838360005b838110156104da5780820151818401526020810190506104bf565b50505050905090810190601f1680156105075780820380516001836020036101000a031916815260200191505b5085810383528a818151815260200191508051906020019080838360005b83811015610540578082015181840152602081019050610525565b50505050905090810190601f16801561056d5780820380516001836020036101000a031916815260200191505b50858103825288818151815260200191508051906020019080838360005b838110156105a657808201518184015260208101905061058b565b50505050905090810190601f1680156105d35780820380516001836020036101000a031916815260200191505b509f5050505050505050505050505050505060405180910390f35b61061a6004803603602081101561060457600080fd5b8101908080359060200190929190505050610e2f565b005b34801561062857600080fd5b50610631611637565b6040518082815260200191505060405180910390f35b60008054600181600116156101000203166002900480601f0160208091040260200160405190810160405280929190818152602001828054600181600116156101000203166002900480156106dd5780601f106106b2576101008083540402835291602001916106dd565b820191906000526020600020905b8154815290600101906020018083116106c057829003601f168201915b505050505081565b60008851116106f357600080fd5b6000871161070057600080fd5b6000861180156107105750600686105b61071957600080fd5b600085511161072757600080fd5b6000841161073457600080fd5b600083511161074257600080fd5b6000821161074f57600080fd5b60016000815480929190600101919050555060405180610160016040528060015481526020018981526020018881526020018781526020018681526020018581526020018481526020018381526020018281526020013373ffffffffffffffffffffffffffffffffffffffff1681526020016000151581525060026000600154815260200190815260200160002060008201518160000155602082015181600101908051906020019061080392919061163d565b506040820151816002015560608201518160030155608082015181600401908051906020019061083492919061163d565b5060a0820151816005015560c082015181600601908051906020019061085b92919061163d565b5060e0820151816007015561010082015181600801908051906020019061088392919061163d565b506101208201518160090160006101000a81548173ffffffffffffffffffffffffffffffffffffffff021916908373ffffffffffffffffffffffffffffffffffffffff1602179055506101408201518160090160146101000a81548160ff0219169083151502179055509050507f4301a874a33a79d68e3e741524a6857998fb94fc4d2f5f4913e427afe2ce4b106001548989898989898989336000604051808c8152602001806020018b81526020018a81526020018060200189815260200180602001888152602001806020018773ffffffffffffffffffffffffffffffffffffffff1673ffffffffffffffffffffffffffffffffffffffff1681526020018615151515815260200185810385528f818151815260200191508051906020019080838360005b838110156109c55780820151818401526020810190506109aa565b50505050905090810190601f1680156109f25780820380516001836020036101000a031916815260200191505b5085810384528c818151815260200191508051906020019080838360005b83811015610a2b578082015181840152602081019050610a10565b50505050905090810190601f168015610a585780820380516001836020036101000a031916815260200191505b5085810383528a818151815260200191508051906020019080838360005b83811015610a91578082015181840152602081019050610a76565b50505050905090810190601f168015610abe5780820380516001836020036101000a031916815260200191505b50858103825288818151815260200191508051906020019080838360005b83811015610af7578082015181840152602081019050610adc565b50505050905090810190601f168015610b245780820380516001836020036101000a031916815260200191505b509f5050505050505050505050505050505060405180910390a15050505050505050565b6002602052806000526040600020600091509050806000015490806001018054600181600116156101000203166002900480601f016020809104026020016040519081016040528092919081815260200182805460018160011615610100020316600290048015610bfa5780601f10610bcf57610100808354040283529160200191610bfa565b820191906000526020600020905b815481529060010190602001808311610bdd57829003601f168201915b505050505090806002015490806003015490806004018054600181600116156101000203166002900480601f016020809104026020016040519081016040528092919081815260200182805460018160011615610100020316600290048015610ca45780601f10610c7957610100808354040283529160200191610ca4565b820191906000526020600020905b815481529060010190602001808311610c8757829003601f168201915b505050505090806005015490806006018054600181600116156101000203166002900480601f016020809104026020016040519081016040528092919081815260200182805460018160011615610100020316600290048015610d485780601f10610d1d57610100808354040283529160200191610d48565b820191906000526020600020905b815481529060010190602001808311610d2b57829003601f168201915b505050505090806007015490806008018054600181600116156101000203166002900480601f016020809104026020016040519081016040528092919081815260200182805460018160011615610100020316600290048015610dec5780601f10610dc157610100808354040283529160200191610dec565b820191906000526020600020905b815481529060010190602001808311610dcf57829003601f168201915b5050505050908060090160009054906101000a900473ffffffffffffffffffffffffffffffffffffffff16908060090160149054906101000a900460ff1690508b565b610e376116bd565b600260008381526020019081526020016000206040518061016001604052908160008201548152602001600182018054600181600116156101000203166002900480601f016020809104026020016040519081016040528092919081815260200182805460018160011615610100020316600290048015610ef95780601f10610ece57610100808354040283529160200191610ef9565b820191906000526020600020905b815481529060010190602001808311610edc57829003601f168201915b505050505081526020016002820154815260200160038201548152602001600482018054600181600116156101000203166002900480601f016020809104026020016040519081016040528092919081815260200182805460018160011615610100020316600290048015610faf5780601f10610f8457610100808354040283529160200191610faf565b820191906000526020600020905b815481529060010190602001808311610f9257829003601f168201915b5050505050815260200160058201548152602001600682018054600181600116156101000203166002900480601f01602080910402602001604051908101604052809291908181526020018280546001816001161561010002031660029004801561105b5780601f106110305761010080835404028352916020019161105b565b820191906000526020600020905b81548152906001019060200180831161103e57829003601f168201915b5050505050815260200160078201548152602001600882018054600181600116156101000203166002900480601f0160208091040260200160405190810160405280929190818152602001828054600181600116156101000203166002900480156111075780601f106110dc57610100808354040283529160200191611107565b820191906000526020600020905b8154815290600101906020018083116110ea57829003601f168201915b505050505081526020016009820160009054906101000a900473ffffffffffffffffffffffffffffffffffffffff1673ffffffffffffffffffffffffffffffffffffffff1673ffffffffffffffffffffffffffffffffffffffff1681526020016009820160149054906101000a900460ff161515151581525050905060008161012001519050600082600001511180156111a75750600154826000015111155b6111b057600080fd5b81604001513410156111c157600080fd5b816101400151156111d157600080fd5b3373ffffffffffffffffffffffffffffffffffffffff168173ffffffffffffffffffffffffffffffffffffffff16141561120a57600080fd5b3382610120019073ffffffffffffffffffffffffffffffffffffffff16908173ffffffffffffffffffffffffffffffffffffffff1681525050600182610140019015159081151581525050816002600085815260200190815260200160002060008201518160000155602082015181600101908051906020019061128f92919061163d565b50604082015181600201556060820151816003015560808201518160040190805190602001906112c092919061163d565b5060a0820151816005015560c08201518160060190805190602001906112e792919061163d565b5060e0820151816007015561010082015181600801908051906020019061130f92919061163d565b506101208201518160090160006101000a81548173ffffffffffffffffffffffffffffffffffffffff021916908373ffffffffffffffffffffffffffffffffffffffff1602179055506101408201518160090160146101000a81548160ff0219169083151502179055509050508073ffffffffffffffffffffffffffffffffffffffff166108fc349081150290604051600060405180830381858888f193505050501580156113c2573d6000803e3d6000fd5b507f1f96acfa21bf1c1a4103df64ea8dc79993d2a9673a33d7126e03d71045eabb4a60015483602001518460400151856060015186608001518760a001518860c001518960e001518a6101000151336001604051808c8152602001806020018b81526020018a81526020018060200189815260200180602001888152602001806020018773ffffffffffffffffffffffffffffffffffffffff1673ffffffffffffffffffffffffffffffffffffffff1681526020018615151515815260200185810385528f818151815260200191508051906020019080838360005b838110156114b957808201518184015260208101905061149e565b50505050905090810190601f1680156114e65780820380516001836020036101000a031916815260200191505b5085810384528c818151815260200191508051906020019080838360005b8381101561151f578082015181840152602081019050611504565b50505050905090810190601f16801561154c5780820380516001836020036101000a031916815260200191505b5085810383528a818151815260200191508051906020019080838360005b8381101561158557808201518184015260208101905061156a565b50505050905090810190601f1680156115b25780820380516001836020036101000a031916815260200191505b50858103825288818151815260200191508051906020019080838360005b838110156115eb5780820151818401526020810190506115d0565b50505050905090810190601f1680156116185780820380516001836020036101000a031916815260200191505b509f5050505050505050505050505050505060405180910390a1505050565b60015481565b828054600181600116156101000203166002900490600052602060002090601f016020900481019282601f1061167e57805160ff19168380011785556116ac565b828001600101855582156116ac579182015b828111156116ab578251825591602001919060010190611690565b5b5090506116b9919061172f565b5090565b604051806101600160405280600081526020016060815260200160008152602001600081526020016060815260200160008152602001606081526020016000815260200160608152602001600073ffffffffffffffffffffffffffffffffffffffff1681526020016000151581525090565b61175191905b8082111561174d576000816000905550600101611735565b5090565b9056fea265627a7a72315820bc8255ef77ba255e424f8e7445d158aefa77e39e6c56ab152cacb6252e88bc1f64736f6c63430005100032",
  "source": "// SPDX-License-Identifier: MIT\r\npragma solidity >=0.5.16;\r\n\r\ncontract Marketplace {\r\n    string public name;\r\n    uint public productCount = 0;\r\n    mapping(uint => RealEstate) public products;\r\n\r\n    struct RealEstate {\r\n        uint id;\r\n        string name;\r\n        uint price;\r\n        uint realEstateType;\r\n        string realEstateAddress;\r\n        uint area;\r\n        string description;\r\n        uint nbroom;\r\n        string sellingDate;\r\n        address payable owner; //Parcqu'on veut payer le propriétaire, utiliser address payable\r\n        bool purchased;\r\n    }\r\n\r\n    event RealEstateCreated(\r\n        uint id,\r\n        string name,\r\n        uint price,\r\n        uint realEstateType,\r\n        string realEstateAddress,\r\n        uint area,\r\n        string description,\r\n        uint nbroom,\r\n        string sellingDate,\r\n        address payable owner,\r\n        bool purchased\r\n    );\r\n\r\n    event RealEstatePurchased(\r\n        uint id,\r\n        string name,\r\n        uint price,\r\n        uint realEstateType,\r\n        string realEstateAddress,\r\n        uint area,\r\n        string description,\r\n        uint nbroom,\r\n        string sellingDate,\r\n        address payable owner,\r\n        bool purchased\r\n    );\r\n\r\n    constructor() public {\r\n        name = \"Marketplace\";\r\n    }\r\n\r\n    function createRealEstate(\r\n            string memory _name, \r\n            uint _price,\r\n            uint _realEstateType,\r\n            string memory _realEstateAddress,\r\n            uint _area,\r\n            string memory _description, \r\n            uint _nbroom,\r\n            string memory _sellingDate\r\n        ) public {\r\n        // Require a valid name\r\n        require(bytes(_name).length > 0);\r\n        // Require a valid price\r\n        require(_price > 0);\r\n        // Require a valid type of realestate\r\n        require(_realEstateType > 0 && _realEstateType< 6 );\r\n        // Require a valid address of realestate\r\n        require(bytes(_realEstateAddress).length > 0);\r\n        // // Require a valid area\r\n        require(_area > 0);\r\n        // // Require a valid description of realestate\r\n        require(bytes(_description).length > 0);\r\n        // // Require a valid nbroom\r\n        require(_nbroom > 0);\r\n        // // Require a valid sellingDate of realestate\r\n        // require(bytes(_sellingDate).length > 0);\r\n        // Increment product count\r\n        productCount ++;\r\n        // Create the product\r\n        products[productCount] = RealEstate(\r\n            productCount, \r\n            _name, \r\n            _price, \r\n            _realEstateType, \r\n            _realEstateAddress, \r\n            _area, \r\n            _description, \r\n            _nbroom, \r\n            _sellingDate, \r\n            msg.sender,\r\n            false\r\n        );\r\n        // Trigger an event\r\n        emit RealEstateCreated(\r\n            productCount, \r\n            _name, \r\n            _price, \r\n            _realEstateType,\r\n            _realEstateAddress, \r\n            _area, \r\n            _description, \r\n            _nbroom, \r\n            _sellingDate,  \r\n            msg.sender,\r\n            false\r\n        );\r\n    }\r\n\r\n\r\n    // fonction payable => elle acceptera que la crypto-monnaie Etherum\r\n    function purchaseRealEstate(uint _id) public payable {\r\n        // Fetch the product\r\n        RealEstate memory _product = products[_id];\r\n        // Fetch the owner\r\n        address payable _seller = _product.owner;\r\n        // Make sure the product has a valid id\r\n        require(_product.id > 0 && _product.id <= productCount);\r\n        // Require that there is enough Ether in the transaction\r\n        require(msg.value >= _product.price);\r\n        // Require that the product has not been purchased already\r\n        require(!_product.purchased);\r\n        // Require that the buyer is not the seller\r\n        require(_seller != msg.sender);\r\n        // Transfer ownership to the buyer\r\n        _product.owner = msg.sender;\r\n        // Mark as purchased\r\n        _product.purchased = true;\r\n        // Update the product\r\n        products[_id] = _product;\r\n        // Pay the seller by sending them Ether\r\n        address(_seller).transfer(msg.value);\r\n        // Trigger an event\r\n        emit RealEstatePurchased(\r\n            productCount, \r\n            _product.name, \r\n            _product.price, \r\n            _product.realEstateType, \r\n            _product.realEstateAddress, \r\n            _product.area, \r\n            _product.description, \r\n            _product.nbroom, \r\n            _product.sellingDate, \r\n            msg.sender, \r\n            true);\r\n    }\r\n\r\n    // write resell function\r\n\r\n}",
  "sourcePath": "C:/Users/petit/houseCrypto/contracts/Marketplace.sol",
  "compiler": {
    "name": "solc",
    "version": "0.5.16+commit.9c3226ce.Emscripten.clang"
  },
  "schemaVersion": "3.3.2",
  "updatedAt": "2021-01-23T21:57:21.491Z",
  "networkType": "ethereum",
  "devdoc": {
    "methods": {}
  },
  "userdoc": {
    "methods": {}
  }
}