{
  "contractName": "Marketplace",
  "abi": [
    {
      "inputs": [],
      "payable": false,
      "stateMutability": "nonpayable",
      "type": "constructor"
    },
    {
      "anonymous": false,
      "inputs": [
        {
          "indexed": false,
          "internalType": "uint256",
          "name": "id",
          "type": "uint256"
        },
        {
          "indexed": false,
          "internalType": "string",
          "name": "name",
          "type": "string"
        },
        {
          "indexed": false,
          "internalType": "uint256",
          "name": "price",
          "type": "uint256"
        },
        {
          "indexed": false,
          "internalType": "uint256",
          "name": "realEstateType",
          "type": "uint256"
        },
        {
          "indexed": false,
          "internalType": "string",
          "name": "realEstateAddress",
          "type": "string"
        },
        {
          "indexed": false,
          "internalType": "uint256",
          "name": "area",
          "type": "uint256"
        },
        {
          "indexed": false,
          "internalType": "string",
          "name": "description",
          "type": "string"
        },
        {
          "indexed": false,
          "internalType": "uint256",
          "name": "nbroom",
          "type": "uint256"
        },
        {
          "indexed": false,
          "internalType": "string",
          "name": "sellingDate",
          "type": "string"
        },
        {
          "indexed": false,
          "internalType": "address payable",
          "name": "owner",
          "type": "address"
        },
        {
          "indexed": false,
          "internalType": "bool",
          "name": "purchased",
          "type": "bool"
        }
      ],
      "name": "RealEstateCreated",
      "type": "event"
    },
    {
      "anonymous": false,
      "inputs": [
        {
          "indexed": false,
          "internalType": "uint256",
          "name": "id",
          "type": "uint256"
        },
        {
          "indexed": false,
          "internalType": "string",
          "name": "name",
          "type": "string"
        },
        {
          "indexed": false,
          "internalType": "uint256",
          "name": "price",
          "type": "uint256"
        },
        {
          "indexed": false,
          "internalType": "uint256",
          "name": "realEstateType",
          "type": "uint256"
        },
        {
          "indexed": false,
          "internalType": "string",
          "name": "realEstateAddress",
          "type": "string"
        },
        {
          "indexed": false,
          "internalType": "uint256",
          "name": "area",
          "type": "uint256"
        },
        {
          "indexed": false,
          "internalType": "string",
          "name": "description",
          "type": "string"
        },
        {
          "indexed": false,
          "internalType": "uint256",
          "name": "nbroom",
          "type": "uint256"
        },
        {
          "indexed": false,
          "internalType": "string",
          "name": "sellingDate",
          "type": "string"
        },
        {
          "indexed": false,
          "internalType": "address payable",
          "name": "owner",
          "type": "address"
        },
        {
          "indexed": false,
          "internalType": "bool",
          "name": "purchased",
          "type": "bool"
        }
      ],
      "name": "RealEstatePurchased",
      "type": "event"
    },
    {
      "constant": true,
      "inputs": [],
      "name": "name",
      "outputs": [
        {
          "internalType": "string",
          "name": "",
          "type": "string"
        }
      ],
      "payable": false,
      "stateMutability": "view",
      "type": "function"
    },
    {
      "constant": true,
      "inputs": [],
      "name": "realEstateCount",
      "outputs": [
        {
          "internalType": "uint256",
          "name": "",
          "type": "uint256"
        }
      ],
      "payable": false,
      "stateMutability": "view",
      "type": "function"
    },
    {
      "constant": true,
      "inputs": [
        {
          "internalType": "uint256",
          "name": "",
          "type": "uint256"
        }
      ],
      "name": "realEstates",
      "outputs": [
        {
          "internalType": "uint256",
          "name": "id",
          "type": "uint256"
        },
        {
          "internalType": "string",
          "name": "name",
          "type": "string"
        },
        {
          "internalType": "uint256",
          "name": "price",
          "type": "uint256"
        },
        {
          "internalType": "uint256",
          "name": "realEstateType",
          "type": "uint256"
        },
        {
          "internalType": "string",
          "name": "realEstateAddress",
          "type": "string"
        },
        {
          "internalType": "uint256",
          "name": "area",
          "type": "uint256"
        },
        {
          "internalType": "string",
          "name": "description",
          "type": "string"
        },
        {
          "internalType": "uint256",
          "name": "nbroom",
          "type": "uint256"
        },
        {
          "internalType": "string",
          "name": "sellingDate",
          "type": "string"
        },
        {
          "internalType": "address payable",
          "name": "owner",
          "type": "address"
        },
        {
          "internalType": "bool",
          "name": "purchased",
          "type": "bool"
        }
      ],
      "payable": false,
      "stateMutability": "view",
      "type": "function"
    },
    {
      "constant": false,
      "inputs": [
        {
          "internalType": "string",
          "name": "_name",
          "type": "string"
        },
        {
          "internalType": "uint256",
          "name": "_price",
          "type": "uint256"
        },
        {
          "internalType": "uint256",
          "name": "_realEstateType",
          "type": "uint256"
        },
        {
          "internalType": "string",
          "name": "_realEstateAddress",
          "type": "string"
        },
        {
          "internalType": "uint256",
          "name": "_area",
          "type": "uint256"
        },
        {
          "internalType": "string",
          "name": "_description",
          "type": "string"
        },
        {
          "internalType": "uint256",
          "name": "_nbroom",
          "type": "uint256"
        },
        {
          "internalType": "string",
          "name": "_sellingDate",
          "type": "string"
        }
      ],
      "name": "createRealEstate",
      "outputs": [],
      "payable": false,
      "stateMutability": "nonpayable",
      "type": "function"
    },
    {
      "constant": false,
      "inputs": [
        {
          "internalType": "uint256",
          "name": "_id",
          "type": "uint256"
        }
      ],
      "name": "purchaseRealEstate",
      "outputs": [],
      "payable": true,
      "stateMutability": "payable",
      "type": "function"
    }
  ],
  "bytecode": "0x608060405260006001553480156200001657600080fd5b506040518060400160405280600b81526020017f4d61726b6574706c61636500000000000000000000000000000000000000000081525060009080519060200190620000649291906200006b565b506200011a565b828054600181600116156101000203166002900490600052602060002090601f016020900481019282601f10620000ae57805160ff1916838001178555620000df565b82800160010185558215620000df579182015b82811115620000de578251825591602001919060010190620000c1565b5b509050620000ee9190620000f2565b5090565b6200011791905b8082111562000113576000816000905550600101620000f9565b5090565b90565b611797806200012a6000396000f3fe60806040526004361061004a5760003560e01c806304fe63631461004f57806306fdde031461007a578063656eb0301461010a57806399395945146103c0578063c062523714610619575b600080fd5b34801561005b57600080fd5b50610064610647565b6040518082815260200191505060405180910390f35b34801561008657600080fd5b5061008f61064d565b6040518080602001828103825283818151815260200191508051906020019080838360005b838110156100cf5780820151818401526020810190506100b4565b50505050905090810190601f1680156100fc5780820380516001836020036101000a031916815260200191505b509250505060405180910390f35b34801561011657600080fd5b506103be600480360361010081101561012e57600080fd5b810190808035906020019064010000000081111561014b57600080fd5b82018360208201111561015d57600080fd5b8035906020019184600183028401116401000000008311171561017f57600080fd5b91908080601f016020809104026020016040519081016040528093929190818152602001838380828437600081840152601f19601f8201169050808301925050505050505091929192908035906020019092919080359060200190929190803590602001906401000000008111156101f657600080fd5b82018360208201111561020857600080fd5b8035906020019184600183028401116401000000008311171561022a57600080fd5b91908080601f016020809104026020016040519081016040528093929190818152602001838380828437600081840152601f19601f820116905080830192505050505050509192919290803590602001909291908035906020019064010000000081111561029757600080fd5b8201836020820111156102a957600080fd5b803590602001918460018302840111640100000000831117156102cb57600080fd5b91908080601f016020809104026020016040519081016040528093929190818152602001838380828437600081840152601f19601f820116905080830192505050505050509192919290803590602001909291908035906020019064010000000081111561033857600080fd5b82018360208201111561034a57600080fd5b8035906020019184600183028401116401000000008311171561036c57600080fd5b91908080601f016020809104026020016040519081016040528093929190818152602001838380828437600081840152601f19601f8201169050808301925050505050505091929192905050506106eb565b005b3480156103cc57600080fd5b506103f9600480360360208110156103e357600080fd5b8101908080359060200190929190505050610b5c565b604051808c8152602001806020018b81526020018a81526020018060200189815260200180602001888152602001806020018773ffffffffffffffffffffffffffffffffffffffff1673ffffffffffffffffffffffffffffffffffffffff1681526020018615151515815260200185810385528f818151815260200191508051906020019080838360005b8381101561049f578082015181840152602081019050610484565b50505050905090810190601f1680156104cc5780820380516001836020036101000a031916815260200191505b5085810384528c818151815260200191508051906020019080838360005b838110156105055780820151818401526020810190506104ea565b50505050905090810190601f1680156105325780820380516001836020036101000a031916815260200191505b5085810383528a818151815260200191508051906020019080838360005b8381101561056b578082015181840152602081019050610550565b50505050905090810190601f1680156105985780820380516001836020036101000a031916815260200191505b50858103825288818151815260200191508051906020019080838360005b838110156105d15780820151818401526020810190506105b6565b50505050905090810190601f1680156105fe5780820380516001836020036101000a031916815260200191505b509f5050505050505050505050505050505060405180910390f35b6106456004803603602081101561062f57600080fd5b8101908080359060200190929190505050610e43565b005b60015481565b60008054600181600116156101000203166002900480601f0160208091040260200160405190810160405280929190818152602001828054600181600116156101000203166002900480156106e35780601f106106b8576101008083540402835291602001916106e3565b820191906000526020600020905b8154815290600101906020018083116106c657829003601f168201915b505050505081565b60008851116106f957600080fd5b6000871161070657600080fd5b6000861180156107165750600686105b61071f57600080fd5b600085511161072d57600080fd5b6000841161073a57600080fd5b600083511161074857600080fd5b6000821161075557600080fd5b600081511161076357600080fd5b60016000815480929190600101919050555060405180610160016040528060015481526020018981526020018881526020018781526020018681526020018581526020018481526020018381526020018281526020013373ffffffffffffffffffffffffffffffffffffffff1681526020016000151581525060026000600154815260200190815260200160002060008201518160000155602082015181600101908051906020019061081792919061164b565b506040820151816002015560608201518160030155608082015181600401908051906020019061084892919061164b565b5060a0820151816005015560c082015181600601908051906020019061086f92919061164b565b5060e0820151816007015561010082015181600801908051906020019061089792919061164b565b506101208201518160090160006101000a81548173ffffffffffffffffffffffffffffffffffffffff021916908373ffffffffffffffffffffffffffffffffffffffff1602179055506101408201518160090160146101000a81548160ff0219169083151502179055509050507f4301a874a33a79d68e3e741524a6857998fb94fc4d2f5f4913e427afe2ce4b106001548989898989898989336000604051808c8152602001806020018b81526020018a81526020018060200189815260200180602001888152602001806020018773ffffffffffffffffffffffffffffffffffffffff1673ffffffffffffffffffffffffffffffffffffffff1681526020018615151515815260200185810385528f818151815260200191508051906020019080838360005b838110156109d95780820151818401526020810190506109be565b50505050905090810190601f168015610a065780820380516001836020036101000a031916815260200191505b5085810384528c818151815260200191508051906020019080838360005b83811015610a3f578082015181840152602081019050610a24565b50505050905090810190601f168015610a6c5780820380516001836020036101000a031916815260200191505b5085810383528a818151815260200191508051906020019080838360005b83811015610aa5578082015181840152602081019050610a8a565b50505050905090810190601f168015610ad25780820380516001836020036101000a031916815260200191505b50858103825288818151815260200191508051906020019080838360005b83811015610b0b578082015181840152602081019050610af0565b50505050905090810190601f168015610b385780820380516001836020036101000a031916815260200191505b509f5050505050505050505050505050505060405180910390a15050505050505050565b6002602052806000526040600020600091509050806000015490806001018054600181600116156101000203166002900480601f016020809104026020016040519081016040528092919081815260200182805460018160011615610100020316600290048015610c0e5780601f10610be357610100808354040283529160200191610c0e565b820191906000526020600020905b815481529060010190602001808311610bf157829003601f168201915b505050505090806002015490806003015490806004018054600181600116156101000203166002900480601f016020809104026020016040519081016040528092919081815260200182805460018160011615610100020316600290048015610cb85780601f10610c8d57610100808354040283529160200191610cb8565b820191906000526020600020905b815481529060010190602001808311610c9b57829003601f168201915b505050505090806005015490806006018054600181600116156101000203166002900480601f016020809104026020016040519081016040528092919081815260200182805460018160011615610100020316600290048015610d5c5780601f10610d3157610100808354040283529160200191610d5c565b820191906000526020600020905b815481529060010190602001808311610d3f57829003601f168201915b505050505090806007015490806008018054600181600116156101000203166002900480601f016020809104026020016040519081016040528092919081815260200182805460018160011615610100020316600290048015610e005780601f10610dd557610100808354040283529160200191610e00565b820191906000526020600020905b815481529060010190602001808311610de357829003601f168201915b5050505050908060090160009054906101000a900473ffffffffffffffffffffffffffffffffffffffff16908060090160149054906101000a900460ff1690508b565b610e4b6116cb565b600260008381526020019081526020016000206040518061016001604052908160008201548152602001600182018054600181600116156101000203166002900480601f016020809104026020016040519081016040528092919081815260200182805460018160011615610100020316600290048015610f0d5780601f10610ee257610100808354040283529160200191610f0d565b820191906000526020600020905b815481529060010190602001808311610ef057829003601f168201915b505050505081526020016002820154815260200160038201548152602001600482018054600181600116156101000203166002900480601f016020809104026020016040519081016040528092919081815260200182805460018160011615610100020316600290048015610fc35780601f10610f9857610100808354040283529160200191610fc3565b820191906000526020600020905b815481529060010190602001808311610fa657829003601f168201915b5050505050815260200160058201548152602001600682018054600181600116156101000203166002900480601f01602080910402602001604051908101604052809291908181526020018280546001816001161561010002031660029004801561106f5780601f106110445761010080835404028352916020019161106f565b820191906000526020600020905b81548152906001019060200180831161105257829003601f168201915b5050505050815260200160078201548152602001600882018054600181600116156101000203166002900480601f01602080910402602001604051908101604052809291908181526020018280546001816001161561010002031660029004801561111b5780601f106110f05761010080835404028352916020019161111b565b820191906000526020600020905b8154815290600101906020018083116110fe57829003601f168201915b505050505081526020016009820160009054906101000a900473ffffffffffffffffffffffffffffffffffffffff1673ffffffffffffffffffffffffffffffffffffffff1673ffffffffffffffffffffffffffffffffffffffff1681526020016009820160149054906101000a900460ff161515151581525050905060008161012001519050600082600001511180156111bb5750600154826000015111155b6111c457600080fd5b81604001513410156111d557600080fd5b816101400151156111e557600080fd5b3373ffffffffffffffffffffffffffffffffffffffff168173ffffffffffffffffffffffffffffffffffffffff16141561121e57600080fd5b3382610120019073ffffffffffffffffffffffffffffffffffffffff16908173ffffffffffffffffffffffffffffffffffffffff168152505060018261014001901515908115158152505081600260008581526020019081526020016000206000820151816000015560208201518160010190805190602001906112a392919061164b565b50604082015181600201556060820151816003015560808201518160040190805190602001906112d492919061164b565b5060a0820151816005015560c08201518160060190805190602001906112fb92919061164b565b5060e0820151816007015561010082015181600801908051906020019061132392919061164b565b506101208201518160090160006101000a81548173ffffffffffffffffffffffffffffffffffffffff021916908373ffffffffffffffffffffffffffffffffffffffff1602179055506101408201518160090160146101000a81548160ff0219169083151502179055509050508073ffffffffffffffffffffffffffffffffffffffff166108fc349081150290604051600060405180830381858888f193505050501580156113d6573d6000803e3d6000fd5b507f1f96acfa21bf1c1a4103df64ea8dc79993d2a9673a33d7126e03d71045eabb4a60015483602001518460400151856060015186608001518760a001518860c001518960e001518a6101000151336001604051808c8152602001806020018b81526020018a81526020018060200189815260200180602001888152602001806020018773ffffffffffffffffffffffffffffffffffffffff1673ffffffffffffffffffffffffffffffffffffffff1681526020018615151515815260200185810385528f818151815260200191508051906020019080838360005b838110156114cd5780820151818401526020810190506114b2565b50505050905090810190601f1680156114fa5780820380516001836020036101000a031916815260200191505b5085810384528c818151815260200191508051906020019080838360005b83811015611533578082015181840152602081019050611518565b50505050905090810190601f1680156115605780820380516001836020036101000a031916815260200191505b5085810383528a818151815260200191508051906020019080838360005b8381101561159957808201518184015260208101905061157e565b50505050905090810190601f1680156115c65780820380516001836020036101000a031916815260200191505b50858103825288818151815260200191508051906020019080838360005b838110156115ff5780820151818401526020810190506115e4565b50505050905090810190601f16801561162c5780820380516001836020036101000a031916815260200191505b509f5050505050505050505050505050505060405180910390a1505050565b828054600181600116156101000203166002900490600052602060002090601f016020900481019282601f1061168c57805160ff19168380011785556116ba565b828001600101855582156116ba579182015b828111156116b957825182559160200191906001019061169e565b5b5090506116c7919061173d565b5090565b604051806101600160405280600081526020016060815260200160008152602001600081526020016060815260200160008152602001606081526020016000815260200160608152602001600073ffffffffffffffffffffffffffffffffffffffff1681526020016000151581525090565b61175f91905b8082111561175b576000816000905550600101611743565b5090565b9056fea265627a7a72315820cf22dfcff37a4652af47cb390a6c99fdf317635cb1df969bf458884ed709862f64736f6c63430005100032",
  "source": "// SPDX-License-Identifier: MIT\r\npragma solidity >=0.5.16;\r\n\r\ncontract Marketplace {\r\n    string public name;\r\n    uint public realEstateCount = 0;\r\n    // mapping pour stocker les biens sur la blockchain\r\n    mapping(uint => RealEstate) public realEstates;\r\n\r\n    struct RealEstate {\r\n        uint id;\r\n        string name;\r\n        uint price;\r\n        uint realEstateType;\r\n        string realEstateAddress;\r\n        uint area;\r\n        string description;\r\n        uint nbroom;\r\n        string sellingDate;\r\n        address payable owner; //Parcqu'on veut payer le propriétaire, utiliser address payable\r\n        bool purchased;\r\n    }\r\n\r\n    event RealEstateCreated(\r\n        uint id,\r\n        string name,\r\n        uint price,\r\n        uint realEstateType,\r\n        string realEstateAddress,\r\n        uint area,\r\n        string description,\r\n        uint nbroom,\r\n        string sellingDate,\r\n        address payable owner,\r\n        bool purchased\r\n    );\r\n\r\n    event RealEstatePurchased(\r\n        uint id,\r\n        string name,\r\n        uint price,\r\n        uint realEstateType,\r\n        string realEstateAddress,\r\n        uint area,\r\n        string description,\r\n        uint nbroom,\r\n        string sellingDate,\r\n        address payable owner,\r\n        bool purchased\r\n    );\r\n\r\n    constructor() public {\r\n        name = \"Marketplace\";\r\n    }\r\n\r\n    function createRealEstate(\r\n            string memory _name, \r\n            uint _price,\r\n            uint _realEstateType,\r\n            string memory _realEstateAddress,\r\n            uint _area,\r\n            string memory _description, \r\n            uint _nbroom,\r\n            string memory _sellingDate\r\n        ) public {\r\n        // un nom valide est requis\r\n        require(bytes(_name).length > 0);\r\n        // un prix valide est requis\r\n        require(_price > 0);\r\n        // un type de bien valide est requis\r\n        require(_realEstateType > 0 && _realEstateType< 6 );\r\n        // une adresse de bien valide est requise\r\n        require(bytes(_realEstateAddress).length > 0);\r\n        // une surface valide est requise \r\n        require(_area > 0);\r\n        // une description valide est requise\r\n        require(bytes(_description).length > 0);\r\n        // un nombre de piece valide est requise\r\n        require(_nbroom > 0);\r\n        // Une date de vente valide est requise\r\n        require(bytes(_sellingDate).length > 0);\r\n        // Increntation du comptage des bien \r\n        realEstateCount ++;\r\n        // Création des biens\r\n        realEstates[realEstateCount] = RealEstate(\r\n            realEstateCount, \r\n            _name, \r\n            _price, \r\n            _realEstateType, \r\n            _realEstateAddress, \r\n            _area, \r\n            _description, \r\n            _nbroom, \r\n            _sellingDate, \r\n            msg.sender,\r\n            false\r\n        );\r\n        // Declancher un evenement\r\n        emit RealEstateCreated(\r\n            realEstateCount, \r\n            _name, \r\n            _price, \r\n            _realEstateType,\r\n            _realEstateAddress, \r\n            _area, \r\n            _description, \r\n            _nbroom, \r\n            _sellingDate,  \r\n            msg.sender,\r\n            false\r\n        );\r\n    }\r\n\r\n\r\n    // fonction payable => elle acceptera que la crypto-monnaie Etherum\r\n    function purchaseRealEstate(uint _id) public payable {\r\n        // cherche le bien\r\n        RealEstate memory _realEstate = realEstates[_id];\r\n        // cherche le proprietaire\r\n        address payable _seller = _realEstate.owner;\r\n        // s'assuerer que le bien à un ID valide\r\n        require(_realEstate.id > 0 && _realEstate.id <= realEstateCount);\r\n        // verifie qu'il y a assez d'ether pour la transtaction\r\n        require(msg.value >= _realEstate.price);\r\n        // verifie que le bien n'a pas déja été acheté\r\n        require(!_realEstate.purchased);\r\n        // vefifie que l'acheteur n'est pas le vendeur \r\n        require(_seller != msg.sender);\r\n        // transfere la possession du bien à l'acheteur\r\n        _realEstate.owner = msg.sender;\r\n        // tag le bien comme acheté\r\n        _realEstate.purchased = true;\r\n        // met a jour le bien\r\n        realEstates[_id] = _realEstate;\r\n        // envoi l'eth au vendeur \r\n        address(_seller).transfer(msg.value);\r\n        // Declanche un evenement\r\n        emit RealEstatePurchased(\r\n            realEstateCount, \r\n            _realEstate.name, \r\n            _realEstate.price, \r\n            _realEstate.realEstateType, \r\n            _realEstate.realEstateAddress, \r\n            _realEstate.area, \r\n            _realEstate.description, \r\n            _realEstate.nbroom, \r\n            _realEstate.sellingDate, \r\n            msg.sender, \r\n            true);\r\n    }\r\n\r\n    // write resell function\r\n\r\n}",
  "sourcePath": "C:/Users/Pierre/Desktop/Blockchain_Project/contracts/Marketplace.sol",
  "compiler": {
    "name": "solc",
    "version": "0.5.16+commit.9c3226ce.Emscripten.clang"
  },
  "schemaVersion": "3.3.2",
  "updatedAt": "2021-01-24T18:24:22.606Z",
  "networkType": "ethereum",
  "devdoc": {
    "methods": {}
  },
  "userdoc": {
    "methods": {}
  }
}